:100000000C942A000C9447000C9447000C94470071
:100010000C9447000C9447000C9401010C94470089
:100020000C9447000C9447000C9447000C94470034
:100030000C9447000C9447000C9447000C94470024
:100040000C9447000C9447000C9447000C94470014
:100050000C94470011241FBECFE5D4E0DEBFCDBF16
:1000600010E0A0E6B0E0EEE6F3E002C005900D92ED
:10007000A63AB107D9F720E0A6EAB0E001C01D9288
:10008000A93AB207E1F70E94AA010C94B5010C94B9
:10009000000080E480B9089590E19A95F1F700C0DE
:1000A000880F880FAE9A95B3937C95BB95B38C73EC
:1000B000892B85BBAE9880E18A95F1F700C0089541
:1000C000CF93C82F611102C0AF9801C0AF9A8C2F97
:1000D00082958F700E944C008C2F8F700E944C0074
:1000E000CF91089585EA9EE00197F1F700C00000E6
:1000F00083E00E944C0087EE93E00197F1F700C087
:10010000000083E00E944C0087EA91E60197F1F736
:1001100000C0000083E00E944C0089EF90E001974E
:10012000F1F700C0000082E00E944C0089EF90E0EF
:100130000197F1F700C0000060E088E20E946000D3
:1001400089EF90E00197F1F700C0000060E08CE0DB
:100150000E94600089EF90E00197F1F700C0000075
:1001600060E086E00E94600089EF90E00197F1F77F
:1001700000C00000089561E00E946000089590E4CE
:10018000699F800D112460E080680E9460000895DE
:1001900060E081E00E94600086E791E00197F1F75E
:1001A00000C000000895CF93DF93EC01888188237D
:1001B00031F021960E94BB0089918111FBCFDF9124
:1001C000CF91089581B3806681BB82B38F7982BB62
:1001D00087B38C7F87BB88B3836088BBD09AD8985D
:1001E0008FEF84BB15BA08950E941B010E94E200A4
:1001F0000E9472000E94490083E390E00E9428015F
:1002000008951F920F920FB60F9211248F93809131
:10021000A600811104C081E08093A60006C08091F1
:10022000A600813011F41092A6008F910F900FBE9E
:100230000F901F9018958EB588608EBD89B780612C
:1002400089BF1BBC8FEF8ABD8EB584608EBD0895BB
:1002500090BD89B988E18AB9579A8EE880BD089522
:1002600060E080E00E94BF0080E690E00E94D30042
:1002700008958091A700811102C00E943001B099B9
:1002800053C083E294EF0197F1F700C00000809122
:10029000A700882319F08130C9F046C081E080931F
:1002A000A7001092A8000E94C80060E080E00E94B1
:1002B000BF0081E790E00E94D30061E080E00E94EF
:1002C000BF008CE790E00E94D3002EC08091A80070
:1002D000811116C00E94C80060E080E00E94BF004B
:1002E00088E890E00E94D30061E080E00E94BF00B7
:1002F00083E990E00E94D30081E08093A80014C0BD
:100300000E94C80060E080E00E94BF0081E790E0AA
:100310000E94D30061E080E00E94BF008CE790E083
:100320000E94D3001092A800B19913C083E294EF09
:100330000197F1F700C000008091A800811105C06D
:100340000E94C8001092A70008950E94C800109251
:10035000A70008950E94F4000E94C8008FE990E071
:0E0360000E94D3000E943901FDCFF894FFCF18
:10036E0054696D653A2020202020416C61726D3AEF
:10037E00002A205365742074696D65002020536532
:10038E007420616C61726D00202053657420746955
:10039E006D65002A2053657420616C61726D004199
:0603AE006C61726D00009D
:00000001FF
