:100000000C942A000C9447000C9447000C94470071
:100010000C9447000C9447000C94B8040C944700CF
:100020000C9447000C9447000C9447000C94470034
:100030000C9447000C9447000C9447000C94470024
:100040000C9447000C9447000C9447000C94470014
:100050000C94470011241FBECFE5D4E0DEBFCDBF16
:1000600010E0A0E6B0E0ECECFFE002C005900D92DD
:10007000A43EB107D9F720E0A4EEB0E001C01D9284
:10008000A23FB207E1F70E94E7040C94E4070C9446
:10009000000022E030E0AC0160E070E080E590E03C
:1000A0000E947903089522E030E0AC0160E070E046
:1000B00080E590E00E94AD03089578948091F1006E
:1000C000811102C0D89808958091F100813009F41F
:1000D000D89A08958091EB00813019F489EE90E070
:1000E00008958AEE90E008958091EB00813019F434
:1000F00082E690E0089583E690E008958091EB0019
:10010000882319F0813021F006C0809163000895A2
:1001100080916200089580E008958091EB0088232B
:1001200019F0813021F006C08091EA000895809195
:10013000E900089580E008950F931F93CF93DF9314
:1001400000D01F92CDB7DEB7882321F0813009F4AB
:1001500045C086C00E947E0090916100891709F415
:100160007FC0809361000E947F0460E070E080E0C7
:1001700090E00E94760484E690E00E948A048091D8
:10018000EB00882319F0813031F009C089E690E056
:100190000E948A0404C081E790E00E948A040E94C1
:1001A0007E001F928F9380EA90E09F938F938E0141
:1001B0000F5F1F4F1F930F930E94FA0461E070E0DE
:1001C00080E090E00E947604C8010E948A040F90AB
:1001D0000F900F900F900F900F9042C00E948D00D3
:1001E000909161008917E1F1809361000E947F0482
:1001F00060E070E080E090E00E94760484E690E0A9
:100200000E948A048091EB00882319F0813031F03C
:1002100009C089E690E00E948A0404C081E790E06A
:100220000E948A040E948D001F928F9380EA90E0C2
:100230009F938F938E010F5F1F4F1F930F930E9409
:10024000FA0461E070E080E090E00E947604C8016A
:100250000E948A040F900F900F900F900F900F90B4
:100260000F900F900F90DF91CF911F910F910895F4
:100270000F931F93CF93DF93CDB7DEB760970FB681
:10028000F894DEBF0FBECDBF0E942803EEEEF0E073
:1002900082818093630081818093620090916000ED
:1002A000891304C09091E8009130B9F51092E800EC
:1002B0008093600060E070E080E090E00E9476044F
:1002C0008BE790E00E948A0461E070E080E090E0BB
:1002D0000E9476048091E9001F928F938091EA003A
:1002E0001F928F93809162001F928F938091630081
:1002F0001F928F938CE890E09F938F938E010F5FF6
:100300001F4F1F930F930E94FA04C8010E948A0492
:100310000FB6F894DEBF0FBECDBF90916300809101
:10032000EA00981315C0909162008091E90098133B
:100330000FC0B19B04C00E945D00B199FCCF9FE744
:100340002DE88BE5915020408040E1F700C000008F
:1003500060960FB6F894DEBF0FBECDBFDF91CF9190
:100360001F910F9108950E947400DC019C919F5F82
:100370009C93E091EB00F0E0E252FF4F80818917FF
:1003800008F41C9208950E946A00DC019C919F5F12
:100390009C93E091EB00F0E0E252FF4F80818917DF
:1003A00008F41C920895811107C060916200809149
:1003B00063000E9405030895813059F4E6EEF0E0F1
:1003C0008091EA0080838091E9008183CF010E94BF
:1003D000490008950E947F0460E070E080E090E0B2
:1003E0000E94760489EC90E00E948A0480E00E94DA
:1003F0009C00B09908C083E294EF0197F1F700C028
:1004000000000E94B301B199F1CF83E294EF01970C
:10041000F1F700C000008091EB008F5F8093EB004C
:10042000823020F31092EB0080E00E94D301809193
:10043000E8008F5F8093E80008950E947F0460E0E9
:1004400070E080E090E00E94760485EA90E00E94EF
:100450008A0481E00E949C00B09908C083E294EF76
:100460000197F1F700C000000E94C301B199F1CFDC
:1004700083E294EF0197F1F700C000008091EB0058
:100480008F5F8093EB00823020F31092EB0081E0CD
:100490000E94D3018091E8008F5F8093E800089567
:1004A0008091EC00811102C00E943801B0996FC0A8
:1004B00083E294EF0197F1F700C000008091EC0017
:1004C000813021F138F0823009F457C0833009F4CB
:1004D00059C05DC081E08093EC001092ED000E9455
:1004E0007F0460E070E080E090E00E94760480EBA2
:1004F00090E00E948A0461E070E080E090E00E9459
:1005000076048BEB90E00E948A0441C08091ED005C
:1005100081111AC00E947F0460E070E080E090E0EA
:100520000E94760487EC90E00E948A0461E070E00B
:1005300080E090E00E94760482ED90E00E948A04C0
:1005400081E08093ED0023C00E947F0460E070E0B2
:1005500080E090E00E94760480EB90E00E948A04A4
:1005600061E070E080E090E00E9476048BEB90E028
:100570000E948A041092ED000AC00E94EA011092C3
:10058000EC0023C00E941D021092EC001EC0B19925
:100590001DC08091EC008130C9F483E294EF019793
:1005A000F1F700C000008091ED00811107C00E94AA
:1005B000EA010E947F041092EC0008950E941D023F
:1005C0000E947F041092EC00089586B30895982F3E
:1005D00092959F70990F292F220F220F920F8F70E3
:1005E000890F08959DEC899F912D112496959695DC
:1005F000969520E1929FA0011124990F292F220F97
:10060000220F920F891B842B0895CF93DF93C82F5D
:10061000D62F0E94590380ED90E00E94620380E093
:1006200090E00E94620380E090E00E9462038D2FC0
:100630000E94F20290E00E9462038C2F0E94F2025C
:1006400090E00E9462030E945F03DF91CF910895C2
:10065000CF93DF930E94590380ED90E00E946203E4
:1006600080E090E00E9462030E94590381ED90E0D7
:100670000E9462030E946B03CEEED0E088830E944A
:100680006B0389830E9472038A830E945F038881BF
:100690000E94E702888389810E94E70289838A8118
:1006A0000E94E7028A83DF91CF91089580E480B9A8
:1006B000089584EA86BF06B607FEFDCF089584E953
:1006C00086BF089583B984E886BF06B607FEFDCFCE
:1006D00081B1887F089584EC86BF06B607FEFDCF02
:1006E00083B1089584E886BF06B607FEFDCF83B1C7
:1006F0000895EF92FF920F931F93CF93DF93082FEC
:10070000C62FD72F7A01122F0E945903802F880FEE
:100710000E9462038D2F0E9462038C2F0E9462034D
:10072000112391F0E7011150012F10E00F5F1F4FCF
:100730000E0D1F1D81E28A95F1F7000089910E943C
:100740006203C017D107B1F784E986BFDF91CF916B
:100750001F910F91FF90EF900895CF92DF92EF924B
:10076000FF920F931F93CF93DF93C82F162F072F5E
:10077000D42EF52EE22E0E945903D0E0CC0FDD1FBF
:100780008C2F0E946203802F0E946203812F0E949F
:1007900062030E9459038C2F81600E946203EE2045
:1007A00039F10D2D1F2DCC24CA94CE0CD12C8FEFF6
:1007B000C81AD80AC0E0D0E0F12CE1E0EE1AF10846
:1007C000F1E2FA95F1F70000CE15DF053CF481E087
:1007D00090E00E946B03F801808304C00E947203C2
:1007E000F801808321960F5F1F4FCC15DD0541F77F
:1007F00084E986BFDF91CF911F910F91FF90EF9019
:10080000DF90CF90089590E19A95F1F700C0880F9E
:10081000880FAE9A95B3937C95BB95B38C73892B57
:1008200085BBAE9880E18A95F1F700C00895CF931B
:10083000C82F611102C0AF9801C0AF9A8C2F82956A
:100840008F700E9403048C2F8F700E940304CF913D
:10085000089585EA9EE00197F1F700C0000083E06B
:100860000E94030487EE93E00197F1F700C00000B7
:1008700083E00E94030487EA91E60197F1F700C044
:10088000000083E00E94030489EF90E00197F1F7F4
:1008900000C0000082E00E94030489EF90E001970D
:1008A000F1F700C0000060E088E20E94170489EFC1
:1008B00090E00197F1F700C0000060E08CE00E943A
:1008C000170489EF90E00197F1F700C0000060E0A5
:1008D00086E00E94170489EF90E00197F1F700C0CD
:1008E0000000089561E00E941704089590E4699F54
:1008F000800D112460E080680E941704089560E074
:1009000081E00E94170486E791E00197F1F700C0AB
:1009100000000895CF93DF93EC018881882331F0A4
:1009200021960E94720489918111FBCFDF91CF91B2
:10093000089581B3806681BB82B38F7982BB87B310
:100940008C7F87BB88B3836088BBD09AD8988FEFA1
:1009500084BB15BA08950E94D2040E9499040E9493
:1009600029040E94560383E390E00E94DF04089567
:100970001F920F920FB60F9211248F938091F10066
:10098000811104C081E08093F10006C08091F100E4
:10099000813011F41092F1008F910F900FBE0F90E3
:1009A0001F9018958EB588608EBD89B7806189BF0C
:1009B0001BBC8FEF8ABD8EB584608EBD089590BD3F
:1009C00089B988E18AB9579A8EE880BD08950E9456
:1009D000AB040E947F0484EE90E00E945300E4EE9A
:1009E000F0E080818093EA0081818093E9000E9499
:1009F0005002FDCFAEE0B0E0E0E0F5E00C94BB07C4
:100A00000D891E8986E08C831A8309838FEF9FE707
:100A10009E838D83AE01475E5F4F6F89788DCE01D7
:100A200001960E941C05EF81F885E00FF11F1082EE
:100A30002E96E4E00C94D707ABE0B0E0E2E2F5E0FC
:100A40000C94AD076C017B018A01FC0117821682B0
:100A5000838181FFCCC1CE0101963C01F6019381D7
:100A6000F70193FD859193FF81917F01882309F41C
:100A7000BAC1853239F493FD859193FF81917F014D
:100A8000853229F4B60190E00E941307E7CF912C3C
:100A9000212C312CFFE1F315D8F08B3279F038F4AA
:100AA000803279F08332A1F4232D20611DC08D3274
:100AB00061F0803369F4232D216016C0832D82609C
:100AC000382EE32DE4603E2E2AC0F32DF8601DC0C1
:100AD00037FC2DC020ED280F2A3040F08E32B9F4BB
:100AE00036FC81C1232D2064322E19C036FE06C08B
:100AF0008AE0989E200D1124922E11C0EAE02E9ECD
:100B0000200D1124222EF32DF0623F2E08C08C36CA
:100B100021F4832D8068382E02C0883641F4F70115
:100B200093FD859193FF81917F018111B3CF982F20
:100B30009F7D9554933028F40C5F1F4F9FE399835A
:100B40000DC0833631F0833771F0833509F059C019
:100B500021C0F801808189830E5F1F4F8824839410
:100B6000912C530113C02801F2E04F0E511CF801E3
:100B7000A080B18036FE03C0692D70E002C06FEF27
:100B80007FEFC5010E9408074C018201F32DFF771A
:100B90003F2E16C0280122E0420E511CF801A08011
:100BA000B18036FE03C0692D70E002C06FEF7FEFA9
:100BB000C5010E94FD064C01F32DF0683F2E820115
:100BC00033FC1BC0822D90E088169906B0F4B60164
:100BD00080E290E00E9413072A94F4CFF50137FCDD
:100BE000859137FE81915F01B60190E00E94130765
:100BF00021102A9421E0821A91088114910471F73E
:100C0000E8C0843611F0893641F5F80137FE07C097
:100C100060817181828193810C5F1F4F08C0608168
:100C20007181072E000C880B990B0E5F1F4FF32D5F
:100C3000FF763F2E97FF09C090958095709561953E
:100C40007F4F8F4F9F4FF0683F2E2AE030E0A30187
:100C50000E944F07882E861845C0853731F4232D12
:100C60002F7EB22E2AE030E025C0932D997FB92E39
:100C70008F36C1F018F4883579F0B5C0803719F097
:100C8000883721F0B0C0E92FE061BE2EB4FE0DC060
:100C9000FB2DF460BF2E09C034FE0AC0292F266048
:100CA000B22E06C028E030E005C020E130E002C0EE
:100CB00020E132E0F801B7FE07C0608171818281D6
:100CC00093810C5F1F4F06C06081718180E090E0CE
:100CD0000E5F1F4FA3010E944F07882E8618FB2D21
:100CE000FF773F2E36FE0DC0232D2E7FA22E8914B6
:100CF00058F434FE0BC032FC09C0832D8E7EA82E22
:100D000005C0B82CA32C03C0B82C01C0B92CA4FE7C
:100D10000FC0FE01E80DF11D8081803321F49A2D72
:100D2000997EA92E09C0A2FE06C0B394B39404C054
:100D30008A2D867809F0B394A3FC11C0A0FE06C0EA
:100D4000B21488F4280C922C9B180EC0B21460F4D4
:100D5000B60180E290E00E941307B394F7CFB2147B
:100D600018F42B1802C0982C212CA4FE10C0B60138
:100D700080E390E00E941307A2FE17C0A1FC03C00D
:100D800088E790E002C088E590E0B6010CC08A2DAB
:100D9000867859F0A1FE02C08BE201C080E2A7FC78
:100DA0008DE2B60190E00E941307891438F4B60171
:100DB00080E390E00E9413079A94F7CF8A94F3019E
:100DC000E80DF11D8081B60190E00E9413078110AB
:100DD000F5CF222009F442CEB60180E290E00E94D5
:100DE00013072A94F6CFF6018681978102C08FEF10
:100DF0009FEF2B96E2E10C94C907FC01059061502E
:100E000070400110D8F7809590958E0F9F1F089520
:100E1000FC016150704001900110D8F780959095C9
:100E20008E0F9F1F08950F931F93CF93DF93FB01A6
:100E3000238121FD03C08FEF9FEF2CC022FF16C03E
:100E400046815781248135814217530744F4A0819C
:100E5000B1819D012F5F3F4F318320838C93268189
:100E600037812F5F3F4F3783268314C08B01EC01FE
:100E7000FB010084F185E02D0995892BE1F6D8016D
:100E800016968D919C911797019617969C938E9329
:100E90001697CE01DF91CF911F910F910895FA011E
:100EA000AA27283051F1203181F1E8946F936E7FA9
:100EB0006E5F7F4F8F4F9F4FAF4FB1E03ED0B4E09A
:100EC0003CD0670F781F891F9A1FA11D680F791FDB
:100ED0008A1F911DA11D6A0F711D811D911DA11DEC
:100EE00020D009F468943F912AE0269F11243019FC
:100EF000305D3193DEF6CF010895462F4770405D97
:100F00004193B3E00FD0C9F7F6CF462F4F70405D45
:100F10004A3318F0495D31FD4052419302D0A9F7A0
:100F2000EACFB4E0A6959795879577956795BA959A
:100F3000C9F700976105710508959B01AC010A2E60
:100F400006945795479537952795BA95C9F7620F37
:100F5000731F841F951FA01D08952F923F924F92DB
:100F60005F926F927F928F929F92AF92BF92CF9239
:100F7000DF92EF92FF920F931F93CF93DF93CDB742
:100F8000DEB7CA1BDB0B0FB6F894DEBF0FBECDBFBA
:100F900009942A88398848885F846E847D848C848B
:100FA0009B84AA84B984C884DF80EE80FD800C8194
:100FB0001B81AA81B981CE0FD11D0FB6F894DEBF77
:0C0FC0000FBECDBFED010895F894FFCFE7
:100FCC00FF6419025365742000486F7572733A20E0
:100FDC00004D696E757465733A200054696D653AFD
:100FEC002020202020416C61726D3A002530326443
:100FFC003A25303264202020202020253032643ADB
:10100C00253032640053657420616C61726D3A0056
:10101C002A205365742074696D6500202053657413
:10102C0020616C61726D0020205365742074696DB1
:10103C0065002A2053657420616C61726D00173B4A
:04104C003B1F0C63D7
:00000001FF
