:100000000C942A000C9434000C9434000C943400AA
:100010000C9434000C9434000C9434000C94340090
:100020000C9434000C9434000C9434000C94340080
:100030000C9434000C9434000C9434000C94340070
:100040000C9434000C9434000C9434000C94340060
:100050000C94340011241FBECFE5D4E0DEBFCDBF29
:100060000E943D000C9456000C94000081B3806601
:1000700081BB82B38F7982BB08950E943600969827
:10008000959A2FE38DE093E0215080409040E1F776
:1000900000C000009598969A2FE38DE093E02150E0
:1000A00080409040E1F700C00000E9CFF894FFCF16
:00000001FF
