:100000000C942A000C9447000C9447000C94470071
:100010000C9447000C9447000C9411050C94470075
:100020000C9447000C9447000C9447000C94470034
:100030000C9447000C9447000C9447000C94470024
:100040000C9447000C9447000C9447000C94470014
:100050000C94470011241FBECFE5D4E0DEBFCDBF16
:1000600010E0A0E6B0E0E4E8F0E102C005900D92F7
:10007000A43EB107D9F720E0A4EEB0E001C01D9284
:10008000A43FB207E1F70E9440050C9440080C948D
:10009000000022E030E0AC0160E070E080E590E03C
:1000A0000E94D203089523E030E0AC0160E070E0EC
:1000B00080E590E00E940604089578948091F20013
:1000C000811102C0D89808958091F200813009F41E
:1000D000D89A08950F931F93CF93DF93CDB7DEB7D0
:1000E00060970FB6F894DEBF0FBECDBF0E948103AC
:1000F000EFEEF0E082818093630081818093620063
:1001000090916000891304C09091E9009130B9F595
:100110001092E9008093600060E070E080E090E081
:100120000E94CF0484E690E00E94E30461E070E066
:1001300080E090E00E94CF048091EA001F928F93AC
:100140008091EB001F928F93809162001F928F939A
:10015000809163001F928F9385E790E09F938F9328
:100160008E010F5F1F4F1F930F930E945605C8010A
:100170000E94E3040FB6F894DEBF0FBECDBF90918E
:1001800063008091EB00981319C0909162008091F8
:10019000EA00981313C08091F300882379F0B19B93
:1001A00004C00E945D00B199FCCF9FE72DE88BE56C
:1001B000915020408040E1F700C0000060960FB6EB
:1001C000F894DEBF0FBECDBFDF91CF911F910F918D
:1001D00008958091F300811119C081E08093F300AC
:1001E0000E94B20380EA90E00E94BB0380E090E0AE
:1001F0000E94BB0382E090E00E94BB038091F30069
:1002000090E00E94BB030E94B80308958130B9F4C6
:100210001092F3000E94B20380EA90E00E94BB03B8
:1002200080E090E00E94BB0382E090E00E94BB036C
:100230008091F30090E00E94BB030E94B8030895F0
:100240008091EC00813019F48AEE90E008958BEEF5
:1002500090E008958091EC00813019F482E690E0FE
:10026000089583E690E008958091EC00882319F0CA
:10027000813021F006C08091630008958091620072
:10028000089580E008958091EC00882319F0813072
:1002900021F006C08091EB0008958091EA00089556
:1002A00080E008950F931F93CF93DF9300D01F92A8
:1002B000CDB7DEB7882321F0813009F445C086C070
:1002C0000E94340190916100891709F47FC08093E6
:1002D00061000E94D80460E070E080E090E00E943D
:1002E000CF048EE890E00E94E3048091EC00882324
:1002F00019F0813031F009C083E990E00E94E304F5
:1003000004C08BE990E00E94E3040E9434011F9234
:100310008F9389E890E09F938F938E010F5F1F4F1B
:100320001F930F930E94560561E070E080E090E01B
:100330000E94CF04C8010E94E3040F900F900F9019
:100340000F900F900F9042C00E9443019091610066
:100350008917E1F1809361000E94D80460E070E0A9
:1003600080E090E00E94CF048EE890E00E94E304D9
:100370008091EC00882319F0813031F009C083E9C5
:1003800090E00E94E30404C08BE990E00E94E30443
:100390000E9443011F928F9389E890E09F938F936F
:1003A0008E010F5F1F4F1F930F930E94560561E050
:1003B00070E080E090E00E94CF04C8010E94E30456
:1003C0000F900F900F900F900F900F900F900F9035
:1003D0000F90DF91CF911F910F9108950E942A01F4
:1003E000DC019C919F5F9C93E091EC00F0E0E25275
:1003F000FF4F8081891708F41C9208950E94200104
:10040000DC019C919F5F9C93E091EC00F0E0E25254
:10041000FF4F8081891708F41C920895811107C04D
:1004200060916200809163000E945E0308958130B4
:1004300059F4E7EEF0E08091EB0080838091EA00D0
:100440008183CF010E94490008950E94D80460E092
:1004500070E080E090E00E94CF0489EC90E00E9480
:10046000E30480E00E945201B09908C083E294EF57
:100470000197F1F700C000000E94EE01B199F1CFA1
:1004800083E294EF0197F1F700C000008091EC0047
:100490008F5F8093EC00823020F31092EC0080E0BC
:1004A0000E940E028091E9008F5F8093E900089519
:1004B0000E94D80460E070E080E090E00E94CF04E9
:1004C00085EA90E00E94E30481E00E945201B09925
:1004D00008C083E294EF0197F1F700C000000E948A
:1004E000FE01B199F1CF83E294EF0197F1F700C0DB
:1004F00000008091EC008F5F8093EC00823020F34D
:100500001092EC0081E00E940E028091E9008F5F62
:100510008093E90008958091F300882319F0969A5A
:1005200095980895959A969808950E948B028091C7
:10053000ED00811108C08BE792E90197F1F700C047
:1005400000000E946A00B0996FC083E294EF0197A7
:10055000F1F700C000008091ED00813021F138F00A
:10056000823009F457C0833009F459C05DC081E07E
:100570008093ED001092EE000E94D80460E070E0DD
:1005800080E090E00E94CF0480EB90E00E94E304C2
:1005900061E070E080E090E00E94CF048BEB90E09F
:1005A0000E94E30441C08091EE0081111AC00E94B4
:1005B000D80460E070E080E090E00E94CF0487EC17
:1005C00090E00E94E30461E070E080E090E00E942F
:1005D000CF0482ED90E00E94E30481E08093EE007E
:1005E00023C00E94D80460E070E080E090E00E94A8
:1005F000CF0480EB90E00E94E30461E070E080E0D3
:1006000090E00E94CF048BEB90E00E94E3041092F4
:10061000EE000AC00E9425021092ED002CC00E943C
:1006200058021092ED0027C0B1991CC08091ED00D6
:100630008130C1F483E294EF0197F1F700C000002C
:100640008091EE00811107C00E9425020E94D8040B
:100650001092ED0012C00E9458020E94D80410921D
:10066000ED000BC0B1990BC08091ED00811107C066
:100670000E94E900089586B3F5CFB19BF9CF0895A4
:10068000982F92959F70990F292F220F220F920F6A
:100690008F70890F08959DEC899F912D1124969557
:1006A0009695969520E1929FA0011124990F292FEC
:1006B000220F220F920F891B842B0895CF93DF9373
:1006C000C82FD62F0E94B20380ED90E00E94BB039A
:1006D00080E090E00E94BB0380E090E00E94BB03BA
:1006E0008D2F0E944B0390E00E94BB038C2F0E9431
:1006F0004B0390E00E94BB030E94B803DF91CF91AF
:100700000895CF93DF930E94B20380ED90E00E94A2
:10071000BB0380E090E00E94BB030E94B20381ED26
:1007200090E00E94BB030E94C403CFEED0E0888318
:100730000E94C40389830E94CB038A830E94B8036A
:1007400088810E944003888389810E9440038983B5
:100750008A810E9440038A83DF91CF91089580E4CB
:1007600080B9089584EA86BF06B607FEFDCF0895D6
:1007700084E986BF089583B984E886BF06B607FE7C
:10078000FDCF81B1887F089584EC86BF06B607FE51
:10079000FDCF83B1089584E886BF06B607FEFDCF7E
:1007A00083B10895EF92FF920F931F93CF93DF933E
:1007B000082FC62FD72F7A01122F0E94B203802F45
:1007C000880F0E94BB038D2F0E94BB038C2F0E94B9
:1007D000BB03112391F0E7011150012F10E00F5FCF
:1007E0001F4F0E0D1F1D81E28A95F1F700008991C0
:1007F0000E94BB03C017D107B1F784E986BFDF9120
:10080000CF911F910F91FF90EF900895CF92DF92BB
:10081000EF92FF920F931F93CF93DF93C82F162F62
:10082000072FD42EF52EE22E0E94B203D0E0CC0F7B
:10083000DD1F8C2F0E94BB03802F0E94BB03812FE2
:100840000E94BB030E94B2038C2F81600E94BB03F5
:10085000EE2039F10D2D1F2DCC24CA94CE0CD12CB5
:100860008FEFC81AD80AC0E0D0E0F12CE1E0EE1A10
:10087000F108F1E2FA95F1F70000CE15DF053CF43E
:1008800081E090E00E94C403F801808304C00E94CC
:10089000CB03F801808321960F5F1F4FCC15DD0538
:1008A00041F784E986BFDF91CF911F910F91FF90AF
:1008B000EF90DF90CF90089590E19A95F1F700C006
:1008C000880F880FAE9A95B3937C95BB95B38C73C4
:1008D000892B85BBAE9880E18A95F1F700C0089519
:1008E000CF93C82F611102C0AF9801C0AF9A8C2F6F
:1008F00082958F700E945C048C2F8F700E945C0424
:10090000CF91089585EA9EE00197F1F700C00000BD
:1009100083E00E945C0487EE93E00197F1F700C04A
:10092000000083E00E945C0487EA91E60197F1F7FA
:1009300000C0000083E00E945C0489EF90E0019712
:10094000F1F700C0000082E00E945C0489EF90E0B3
:100950000197F1F700C0000060E088E20E94700497
:1009600089EF90E00197F1F700C0000060E08CE0B3
:100970000E94700489EF90E00197F1F700C0000039
:1009800060E086E00E94700489EF90E00197F1F743
:1009900000C00000089561E00E947004089590E492
:1009A000699F800D112460E080680E9470040895A2
:1009B00060E081E00E94700486E791E00197F1F722
:1009C00000C000000895CF93DF93EC018881882355
:1009D00031F021960E94CB0489918111FBCFDF91E8
:1009E000CF91089581B3806681BB82B38F7982BB3A
:1009F00087B38C7F87BB88B3836088BBD09AD89835
:100A00008FEF84BB15BA08950E942B050E94F20453
:100A10000E9482040E94AF0383E390E00E943805A5
:100A200008951F920F920FB60F9211248F93809109
:100A3000F200811104C081E08093F20006C0809131
:100A4000F200813011F41092F2008F910F900FBEDE
:100A50000F901F9018958EB588608EBD89B7806104
:100A600089BF1BBC8FEF8ABD8EB584608EBD089593
:100A700090BD89B988E18AB9579A8EE880BD0895FA
:100A80000E9404050E94D80484EE90E00E94530066
:100A9000E4EEF0E080818093EB0081818093EA00B6
:100AA00082818093F3000E949502FDCFAEE0B0E01A
:100AB000ECE5F5E00C9417080D891E8986E08C831F
:100AC0001A8309838FEF9FE79E838D83AE01475E74
:100AD0005F4F6F89788DCE0101960E947805EF8176
:100AE000F885E00FF11F10822E96E4E00C94330895
:100AF000ABE0B0E0EEE7F5E00C9409086C017B0197
:100B00008A01FC0117821682838181FFCCC1CE014C
:100B100001963C01F6019381F70193FD859193FFC6
:100B200081917F01882309F4BAC1853239F493FD9C
:100B3000859193FF81917F01853229F4B60190E080
:100B40000E946F07E7CF912C212C312CFFE1F31588
:100B5000D8F08B3279F038F4803279F08332A1F416
:100B6000232D20611DC08D3261F0803369F4232D67
:100B7000216016C0832D8260382EE32DE4603E2E66
:100B80002AC0F32DF8601DC037FC2DC020ED280FC2
:100B90002A3040F08E32B9F436FC81C1232D206416
:100BA000322E19C036FE06C08AE0989E200D112410
:100BB000922E11C0EAE02E9E200D1124222EF32D3C
:100BC000F0623F2E08C08C3621F4832D8068382EC9
:100BD00002C0883641F4F70193FD859193FF81911E
:100BE0007F018111B3CF982F9F7D9554933028F4C6
:100BF0000C5F1F4F9FE399830DC0833631F083371D
:100C000071F0833509F059C021C0F80180818983D2
:100C10000E5F1F4F88248394912C530113C0280129
:100C2000F2E04F0E511CF801A080B18036FE03C0E7
:100C3000692D70E002C06FEF7FEFC5010E9464076D
:100C40004C018201F32DFF773F2E16C0280122E0D0
:100C5000420E511CF801A080B18036FE03C0692D00
:100C600070E002C06FEF7FEFC5010E9459074C0191
:100C7000F32DF0683F2E820133FC1BC0822D90E0E3
:100C800088169906B0F4B60180E290E00E946F07E2
:100C90002A94F4CFF50137FC859137FE81915F01ED
:100CA000B60190E00E946F0721102A9421E0821A79
:100CB00091088114910471F7E8C0843611F08936E7
:100CC00041F5F80137FE07C060817181828193810F
:100CD0000C5F1F4F08C060817181072E000C880BCC
:100CE000990B0E5F1F4FF32DFF763F2E97FF09C024
:100CF00090958095709561957F4F8F4F9F4FF068CD
:100D00003F2E2AE030E0A3010E94AB07882E861810
:100D100045C0853731F4232D2F7EB22E2AE030E0F6
:100D200025C0932D997FB92E8F36C1F018F48835E0
:100D300079F0B5C0803719F0883721F0B0C0E92FBD
:100D4000E061BE2EB4FE0DC0FB2DF460BF2E09C0C5
:100D500034FE0AC0292F2660B22E06C028E030E0FB
:100D600005C020E130E002C020E132E0F801B7FE2A
:100D700007C060817181828193810C5F1F4F06C023
:100D80006081718180E090E00E5F1F4FA3010E949F
:100D9000AB07882E8618FB2DFF773F2E36FE0DC041
:100DA000232D2E7FA22E891458F434FE0BC032FC62
:100DB00009C0832D8E7EA82E05C0B82CA32C03C09D
:100DC000B82C01C0B92CA4FE0FC0FE01E80DF11D26
:100DD0008081803321F49A2D997EA92E09C0A2FE2C
:100DE00006C0B394B39404C08A2D867809F0B394F6
:100DF000A3FC11C0A0FE06C0B21488F4280C922CEB
:100E00009B180EC0B21460F4B60180E290E00E941C
:100E10006F07B394F7CFB21418F42B1802C0982CB4
:100E2000212CA4FE10C0B60180E390E00E946F0761
:100E3000A2FE17C0A1FC03C088E790E002C088E5CD
:100E400090E0B6010CC08A2D867859F0A1FE02C050
:100E50008BE201C080E2A7FC8DE2B60190E00E9427
:100E60006F07891438F4B60180E390E00E946F07A1
:100E70009A94F7CF8A94F301E80DF11D8081B601B1
:100E800090E00E946F078110F5CF222009F442CE36
:100E9000B60180E290E00E946F072A94F6CFF60137
:100EA0008681978102C08FEF9FEF2B96E2E10C9431
:100EB0002508FC010590615070400110D8F780951D
:100EC00090958E0F9F1F0895FC0161507040019016
:100ED0000110D8F7809590958E0F9F1F08950F935E
:100EE0001F93CF93DF93FB01238121FD03C08FEF7D
:100EF0009FEF2CC022FF16C0468157812481358187
:100F00004217530744F4A081B1819D012F5F3F4FE9
:100F1000318320838C93268137812F5F3F4F378326
:100F2000268314C08B01EC01FB010084F185E02DC8
:100F30000995892BE1F6D80116968D919C9117970A
:100F4000019617969C938E931697CE01DF91CF91C1
:100F50001F910F910895FA01AA27283051F12031ED
:100F600081F1E8946F936E7F6E5F7F4F8F4F9F4F3D
:100F7000AF4FB1E03ED0B4E03CD0670F781F891F7F
:100F80009A1FA11D680F791F8A1F911DA11D6A0F4D
:100F9000711D811D911DA11D20D009F468943F9100
:100FA0002AE0269F11243019305D3193DEF6CF01FF
:100FB0000895462F4770405D4193B3E00FD0C9F7C5
:100FC000F6CF462F4F70405D4A3318F0495D31FD32
:100FD0004052419302D0A9F7EACFB4E0A695979585
:100FE000879577956795BA95C9F70097610571055B
:100FF00008959B01AC010A2E0694579547953795A5
:101000002795BA95C9F7620F731F841F951FA01DFE
:1010100008952F923F924F925F926F927F928F929C
:101020009F92AF92BF92CF92DF92EF92FF920F9377
:101030001F93CF93DF93CDB7DEB7CA1BDB0B0FB681
:10104000F894DEBF0FBECDBF09942A88398848883E
:101050005F846E847D848C849B84AA84B984C884D4
:10106000DF80EE80FD800C811B81AA81B981CE0FCB
:10107000D11D0FB6F894DEBF0FBECDBFED010895B0
:04108000F894FFCF12
:10108400FF64190254696D653A2020202020416CC8
:1010940061726D3A00253032643A25303264202082
:1010A40020202020253032643A25303264005365F4
:1010B400742000486F7572733A20004D696E757420
:1010C40065733A200053657420616C61726D3A0057
:1010D4002A205365742074696D650020205365745B
:1010E40020616C61726D0020205365742074696DF9
:1010F40065002A2053657420616C61726D00173B92
:041104003B1F0C631E
:00000001FF
