S0130000416C61726D5F636C6F636B2E73726563B9
S11300000C942A000C9447000C9447000C9447006D
S11300100C9447000C9447000C94E7020C9447009E
S11300200C9447000C9447000C9447000C94470030
S11300300C9447000C9447000C9447000C94470020
S11300400C9447000C9447000C9447000C94470010
S11300500C94470011241FBECFE5D4E0DEBFCDBF12
S113006010E0A0E6B0E0EAE1FCE002C005900D92E9
S1130070A63DB107D9F720E0A6EDB0E001C01D927E
S1130080AC3DB207E1F70E9416030C940B060C94E6
S113009000008091D800813019F486ED90E0089535
S11300A087ED90E008958091D800813019F481E6BD
S11300B090E0089582E690E008958091D800882326
S11300C019F0813021F006C080916200089580917A
S11300D06100089580E008958091D800882319F084
S11300E0813021F006C08091D70008958091D60018
S11300F0089580E008950F931F93CF93DF9300D06A
S11301001F92CDB7DEB7882321F0813009F445C0B2
S113011086C00E945D0090916000891709F47FC039
S1130120809360000E94AE0260E070E080E090E0A6
S11301300E94A50283E690E00E94B9028091D80053
S1130140882319F0813031F009C088E690E00E94DC
S1130150B90204C080E790E00E94B9020E945D00E9
S11301601F928F938AE790E09F938F938E010F5F86
S11301701F4F1F930F930E94210361E070E080E002
S113018090E00E94A502C8010E94B9020F900F904E
S11301900F900F900F900F9042C00E946C009091AE
S11301A060008917E1F1809360000E94AE0260E074
S11301B070E080E090E00E94A50283E690E00E9457
S11301C0B9028091D800882319F0813031F009C038
S11301D088E690E00E94B90204C080E790E00E94A3
S11301E0B9020E946C001F928F938AE790E09F935C
S11301F08F938E010F5F1F4F1F930F930E94210354
S113020061E070E080E090E00E94A502C8010E94D5
S1130210B9020F900F900F900F900F900F900F90C6
S11302200F900F90DF91CF911F910F91089560E08F
S113023070E080E090E00E94A5028FE790E00E94C9
S1130240B90208950E945300DC019C919F5F9C9326
S1130250E091D800F0E0E753FF4F8081891708F45C
S11302601C9208950E944900DC019C919F5F9C931D
S1130270E091D800F0E0E753FF4F8081891708F43C
S11302801C9208950E94AE0260E070E080E090E06D
S11302900E94A50284EB90E00E94B90280E00E94D3
S11302A07B00B09908C083E294EF0197F1F700C096
S11302B000000E942201B199F1CF83E294EF0197EB
S11302C0F1F700C000008091D8008F5F8093D800C0
S11302D0823020F31092D80008950E94AE0260E0AC
S11302E070E080E090E00E94A50280E990E00E9426
S11302F0B90281E00E947B00B09908C083E294EFC8
S11303000197F1F700C000000E943201B199F1CFCA
S113031083E294EF0197F1F700C000008091D800C8
S11303208F5F8093D800823020F31092D800089514
S11303308091D900811102C00E941701B0996FC049
S113034083E294EF0197F1F700C000008091D90097
S1130350813021F138F0823009F457C0833009F438
S113036059C05DC081E08093D9001092DA000E94E8
S1130370AE0260E070E080E090E00E94A5028BE9AC
S113038090E00E94B90261E070E080E090E00E9499
S1130390A50286EA90E00E94B90241C08091DA0089
S11303A081111AC00E94AE0260E070E080E090E02B
S11303B00E94A50282EB90E00E94B90261E070E025
S11303C080E090E00E94A5028DEB90E00E94B902CB
S11303D081E08093DA0023C00E94AE0260E070E006
S11303E080E090E00E94A5028BE990E00E94B902AF
S11303F061E070E080E090E00E94A50286EA90E06F
S11304000E94B9021092DA000AC00E9442011092BE
S1130410D90023C00E946D011092D9001EC0B19969
S11304201DC08091D9008130C9F483E294EF019713
S1130430F1F700C000008091DA00811107C00E942A
S113044042010E94AE021092D90008950E946D01EB
S11304500E94AE021092D900089586B3089580E4F4
S113046080B9089590E19A95F1F700C0880F880F3C
S1130470AE9A95B3937C95BB95B38C73892B85BB4E
S1130480AE9880E18A95F1F700C00895CF93C82F04
S1130490611102C0AF9801C0AF9A8C2F82958F7002
S11304A00E9432028C2F8F700E943202CF910895E5
S11304B085EA9EE00197F1F700C0000083E00E9406
S11304C0320287EE93E00197F1F700C0000083E069
S11304D00E94320287EA91E60197F1F700C000001A
S11304E083E00E94320289EF90E00197F1F700C0A7
S11304F0000082E00E94320289EF90E00197F1F758
S113050000C0000060E088E20E94460289EF90E0AB
S11305100197F1F700C0000060E08CE00E94460201
S113052089EF90E00197F1F700C0000060E086E0F9
S11305300E94460289EF90E00197F1F700C00000A5
S1130540089561E00E944602089590E4699F800D39
S1130550112460E080680E944602089560E081E012
S11305600E94460286E791E00197F1F700C000007F
S11305700895CF93DF93EC018881882331F021968D
S11305800E94A10289918111FBCFDF91CF9108953F
S113059081B3806681BB82B38F7982BB87B38C7F42
S11305A087BB88B3836088BBD09AD8988FEF84BB0D
S11305B015BA08950E9401030E94C8020E945802BD
S11305C00E942F0283E390E00E940E0308951F927D
S11305D00F920FB60F9211248F938091DB0081113B
S11305E004C081E08093DB0006C08091DB00813091
S11305F011F41092DB008F910F900FBE0F901F909B
S113060018958EB588608EBD89B7806189BF1BBC83
S11306108FEF8ABD8EB584608EBD089590BD89B973
S113062088E18AB9579A8EE880BD08950E94DA025B
S11306300E94AE028FEC90E00E94B9020E949801E1
S1130640FDCFAEE0B0E0E7E2F3E00C94E2050D8903
S11306501E8986E08C831A8309838FEF9FE79E832C
S11306608D83AE01475E5F4F6F89788DCE01019611
S11306700E944303EF81F885E00FF11F10822E964C
S1130680E4E00C94FE05ABE0B0E0E9E4F3E00C94A4
S1130690D4056C017B018A01FC01178216828381D7
S11306A081FFCCC1CE0101963C01F6019381F70193
S11306B093FD859193FF81917F01882309F4BAC149
S11306C0853239F493FD859193FF81917F018532C1
S11306D029F4B60190E00E943A05E7CF912C212C31
S11306E0312CFFE1F315D8F08B3279F038F48032F5
S11306F079F08332A1F4232D20611DC08D3261F085
S1130700803369F4232D216016C0832D8260382E36
S1130710E32DE4603E2E2AC0F32DF8601DC037FCA3
S11307202DC020ED280F2A3040F08E32B9F436FC6B
S113073081C1232D2064322E19C036FE06C08AE002
S1130740989E200D1124922E11C0EAE02E9E200DB9
S11307501124222EF32DF0623F2E08C08C3621F492
S1130760832D8068382E02C0883641F4F70193FD4A
S1130770859193FF81917F018111B3CF982F9F7D44
S11307809554933028F40C5F1F4F9FE399830DC059
S1130790833631F0833771F0833509F059C021C0B5
S11307A0F801808189830E5F1F4F88248394912CE4
S11307B0530113C02801F2E04F0E511CF801A08030
S11307C0B18036FE03C0692D70E002C06FEF7FEF89
S11307D0C5010E942F054C018201F32DFF773F2EA6
S11307E016C0280122E0420E511CF801A080B180FD
S11307F036FE03C0692D70E002C06FEF7FEFC501C4
S11308000E9424054C01F32DF0683F2E820133FC35
S11308101BC0822D90E088169906B0F4B60180E2E0
S113082090E00E943A052A94F4CFF50137FC8591B3
S113083037FE81915F01B60190E00E943A052110D4
S11308402A9421E0821A91088114910471F7E8C076
S1130850843611F0893641F5F80137FE07C060810E
S11308607181828193810C5F1F4F08C06081718107
S1130870072E000C880B990B0E5F1F4FF32DFF768C
S11308803F2E97FF09C090958095709561957F4F95
S11308908F4F9F4FF0683F2E2AE030E0A3010E9463
S11308A07605882E861845C0853731F4232D2F7E92
S11308B0B22E2AE030E025C0932D997FB92E8F36D1
S11308C0C1F018F4883579F0B5C0803719F088374D
S11308D021F0B0C0E92FE061BE2EB4FE0DC0FB2DA7
S11308E0F460BF2E09C034FE0AC0292F2660B22E40
S11308F006C028E030E005C020E130E002C020E17D
S113090032E0F801B7FE07C0608171818281938172
S11309100C5F1F4F06C06081718180E090E00E5F24
S11309201F4FA3010E947605882E8618FB2DFF77A2
S11309303F2E36FE0DC0232D2E7FA22E891458F48F
S113094034FE0BC032FC09C0832D8E7EA82E05C058
S1130950B82CA32C03C0B82C01C0B92CA4FE0FC022
S1130960FE01E80DF11D8081803321F49A2D997EDA
S1130970A92E09C0A2FE06C0B394B39404C08A2D64
S1130980867809F0B394A3FC11C0A0FE06C0B2148B
S113099088F4280C922C9B180EC0B21460F4B60193
S11309A080E290E00E943A05B394F7CFB21418F4B1
S11309B02B1802C0982C212CA4FE10C0B60180E391
S11309C090E00E943A05A2FE17C0A1FC03C088E78C
S11309D090E002C088E590E0B6010CC08A2D8678CC
S11309E059F0A1FE02C08BE201C080E2A7FC8DE2B7
S11309F0B60190E00E943A05891438F4B60180E308
S1130A0090E00E943A059A94F7CF8A94F301E80D96
S1130A10F11D8081B60190E00E943A058110F5CF66
S1130A20222009F442CEB60180E290E00E943A0509
S1130A302A94F6CFF6018681978102C08FEF9FEF4B
S1130A402B96E2E10C94F005FC0105906150704096
S1130A500110D8F7809590958E0F9F1F0895FC0183
S1130A606150704001900110D8F7809590958E0FD9
S1130A709F1F08950F931F93CF93DF93FB0123814F
S1130A8021FD03C08FEF9FEF2CC022FF16C04681CB
S1130A905781248135814217530744F4A081B181E1
S1130AA09D012F5F3F4F318320838C9326813781B3
S1130AB02F5F3F4F3783268314C08B01EC01FB016A
S1130AC00084F185E02D0995892BE1F6D80116966D
S1130AD08D919C911797019617969C938E931697D8
S1130AE0CE01DF91CF911F910F910895FA01AA27AA
S1130AF0283051F1203181F1E8946F936E7F6E5F5D
S1130B007F4F8F4F9F4FAF4FB1E03ED0B4E03CD00A
S1130B10670F781F891F9A1FA11D680F791F8A1FED
S1130B20911DA11D6A0F711D811D911DA11D20D054
S1130B3009F468943F912AE0269F11243019305D0E
S1130B403193DEF6CF010895462F4770405D4193FF
S1130B50B3E00FD0C9F7F6CF462F4F70405D4A334C
S1130B6018F0495D31FD4052419302D0A9F7EACF14
S1130B70B4E0A6959795879577956795BA95C9F743
S1130B8000976105710508959B01AC010A2E069436
S1130B905795479537952795BA95C9F7620F731FEF
S1130BA0841F951FA01D08952F923F924F925F922C
S1130BB06F927F928F929F92AF92BF92CF92DF9269
S1130BC0EF92FF920F931F93CF93DF93CDB7DEB7CE
S1130BD0CA1BDB0B0FB6F894DEBF0FBECDBF099462
S1130BE02A88398848885F846E847D848C849B84B9
S1130BF0AA84B984C884DF80EE80FD800C811B81C7
S1130C00AA81B981CE0FD11D0FB6F894DEBF0FBEF5
S10D0C10CDBFED010895F894FFCF65
S1130C1A6419025365742000486F7572733A200090
S1130C2A4D696E757465733A200025303264005438
S1130C3A696D653A2020202020416C61726D3A006A
S1130C4A53657420616C61726D3A002A205365748D
S1130C5A2074696D6500202053657420616C61728B
S1130C6A6D0020205365742074696D65002A205331
S1130C7A657420616C61726D00173B3B1F0C634104
S1090C8A6C61726D0000B4
S9030000FC
